:100000000C942A000C9447000C9447000C94470071
:100010000C9447000C9447000C9447000C94470044
:100020000C9447000C9447000C9447000C94470034
:100030000C9447000C9447000C9447000C94470024
:100040000C9447000C9447000C9447000C94470014
:100050000C94470011241FBECFE5D8E0DEBFCDBF12
:1000600010E0A0E6B0E0E2EAF8E102C005900D92EF
:10007000AA3EB107D9F711E0AAEEB0E001C01D9287
:10008000A038B107E1F70E9419030C944F0C0C94AF
:10009000000080B7846080BF0895843409F471C083
:1000A000853448F4823499F1833408F04DC08134AA
:1000B00009F083C00FC0823651F1833620F48136B7
:1000C00009F07BC007C0833609F43EC0843609F0CE
:1000D00074C057C0413069F42AB381E090E0AC01AC
:1000E00002C0440F551F6A95E2F7BA01622B6ABB42
:1000F00008952AB381E090E0AC0102C0440F551F7F
:100100006A95E2F7BA01609562236ABB08954130AF
:1001100069F427B381E090E0AC0102C0440F551FA1
:100120006A95E2F7BA01622B67BB089527B381E0B5
:1001300090E0AC0102C0440F551F6A95E2F7BA0186
:100140006095622367BB0895413069F424B381E070
:1001500090E0AC0102C0440F551F6A95E2F7BA0166
:10016000622B64BB089524B381E090E0AC0102C02F
:10017000440F551F6A95E2F7BA016095622364BB8C
:100180000895413069F421B381E090E0AC0102C0F0
:10019000440F551F6A95E2F7BA01622B61BB0895BF
:1001A00021B381E090E0AC0102C0440F551F6A9575
:1001B000E2F7BA016095622361BB0895843409F4C3
:1001C00071C0853448F4823499F1833408F04DC00D
:1001D000813409F083C00FC0823651F1833620F498
:1001E000813609F07BC007C0833609F43EC08436EF
:1001F00009F074C057C0413069F42BB381E090E03E
:10020000AC0102C0440F551F6A95E2F7BA01622B98
:100210006BBB08952BB381E090E0AC0102C0440FAA
:10022000551F6A95E2F7BA01609562236BBB08958A
:10023000413069F428B381E090E0AC0102C0440F82
:10024000551F6A95E2F7BA01622B68BB089528B37F
:1002500081E090E0AC0102C0440F551F6A95E2F7BF
:10026000BA016095622368BB0895413069F425B3F3
:1002700081E090E0AC0102C0440F551F6A95E2F79F
:10028000BA01622B65BB089525B381E090E0AC0113
:1002900002C0440F551F6A95E2F7BA0160956223C8
:1002A00065BB0895413069F422B381E090E0AC0170
:1002B00002C0440F551F6A95E2F7BA01622B62BB78
:1002C000089522B381E090E0AC0102C0440F551FB5
:1002D0006A95E2F7BA016095622362BB089584349F
:1002E00009F451C0853440F4823439F18334C0F5C7
:1002F000813409F05AC00EC08236F9F0833620F4FA
:10030000813609F052C006C0833651F1843609F0B7
:100310004CC039C029B381E090E0062E02C0880F9E
:10032000991F0A94E2F730E08223932302C0959547
:1003300087956A95E2F7982F38C026B381E090E060
:10034000062E02C0880F991F0A94E2F730E082233C
:10035000932302C0959587956A95E2F7982F25C05B
:1003600023B381E090E0062E02C0880F991F0A9403
:10037000E2F730E08223932302C0959587956A9532
:10038000E2F7982F12C020B381E090E0062E02C061
:10039000880F991F0A94E2F730E08223932302C06A
:1003A000959587956A95E2F7982F892F089584345B
:1003B00009F43DC0853440F48234F9F0833450F5BB
:1003C000813409F040C00CC08236B9F0833618F48D
:1003D0008136C9F505C08336E9F08436A1F527C01A
:1003E0002BB381E090E0AC0102C0440F551F6A9529
:1003F000E2F7BA0162276BBB089528B381E090E071
:10040000AC0102C0440F551F6A95E2F7BA0162279A
:1004100068BB089525B381E090E0AC0102C0440FB1
:10042000551F6A95E2F7BA01622765BB089522B3AA
:1004300081E090E0AC0102C0440F551F6A95E2F7DD
:10044000BA01622762BB08958434D9F0853438F448
:10045000823499F0833498F48134A1F40CC082364C
:1004600061F0833618F4813669F405C0833639F0BB
:10047000843641F406C06ABB089567BB089564BB27
:10048000089561BB08958434D9F0853438F48234FA
:1004900099F0833498F48134A1F40CC0823661F071
:1004A000833618F4813669F405C0833639F0843612
:1004B00041F406C06BBB089568BB089565BB089501
:1004C00062BB08958434D9F0853438F4823499F0CD
:1004D000833498F48134A9F40CC0823661F08336F9
:1004E00018F4813671F405C0833639F0843649F446
:1004F00006C089B3089586B3089583B3089580B381
:10050000089580E00895843409F1853438F4823404
:10051000A9F08334B8F48134E1F40CC0823671F070
:10052000833618F48136A9F405C0833659F0843631
:1005300081F40CC08BB380958BBB089588B38095F4
:1005400088BB089585B3809585BB089582B3809557
:1005500082BB08950F931F93CF93C82F062F462F6A
:10056000417060E00E94DE0010E0A801427050700F
:10057000559547958C2F61E00E94DE00A8014470DC
:10058000507055954795559547958C2F62E00E9480
:10059000DE0008701070A801559547955595479550
:1005A000559547958C2F63E00E94DE00CF911F91F7
:1005B0000F9108950F931F93CF93C82F062F462FA7
:1005C000417064E00E94DE0010E0A80142705070AB
:1005D000559547958C2F65E00E94DE00A801447078
:1005E000507055954795559547958C2F66E00E941C
:1005F000DE0008701070A8015595479555954795F0
:10060000559547958C2F67E00E94DE00CF911F9192
:100610000F910895CF93DF93D82FC62F40E00E940B
:100620004D008D2F6C2F41E00E94DE00DF91CF91B5
:1006300008950E9401090E94580381E460E00E942D
:10064000430381E461E00E94430381E461E00E948E
:1006500047030E941F0781E461E00E944B0381E48D
:1006600060E00E9447030E94410881E460E00E942C
:100670004B038FEF99E6A8E181509040A040E1F74D
:1006800000C00000FFCF41E00E944D00089541E00E
:100690000E94DE00089540E00E94DE0008950E945E
:1006A000D70108950E946F0108950E94DB08089504
:1006B00082E464E041E00E944D0082E465E041E0B4
:1006C0000E944D0082E466E041E00E944D0082E419
:1006D00067E041E00E944D00089582E464E040E05C
:1006E0000E94DE0082E465E040E00E94DE0082E4D9
:1006F00066E040E00E94DE0082E467E040E00E94A5
:10070000DE00089588E090E00E94550382E464E0F2
:1007100040E00E94DE0082E465E041E00E94DE00ED
:1007200082E466E040E00E94DE0082E467E041E0AF
:100730000E94DE00089588E090E00E94550382E464
:1007400064E041E00E94DE0082E465E040E00E9457
:10075000DE0082E466E041E00E94DE0082E467E0C1
:1007600040E00E94DE0008958FE090E00E94550373
:1007700082E464E040E00E94DE0082E465E041E063
:100780000E94DE0082E466E041E00E94DE0082E436
:1007900067E040E00E94DE008FEB97E2A9E0815025
:1007A0009040A040E1F700C000000E946D03089552
:1007B0008FE090E00E94550382E464E041E00E94F3
:1007C000DE0082E465E040E00E94DE0082E466E054
:1007D00040E00E94DE0082E467E041E00E94DE002B
:1007E0008FEB97E2A9E081509040A040E1F700C074
:1007F00000000E946D0308950E94E30B64E670E020
:100800000E94670B9C01B901882777FD8095982F7E
:100810000E94500A20E030E048EC52E40E94B50902
:10082000462F572F682F792FCB01BA01089524EA5C
:1008300030E74DE75FE30E94040B462F572F682FE8
:10084000792FCB01BA010895AF92BF92CF92DF9278
:10085000EF92FF920F931F93CF93DF93D62FC72F63
:10086000F82EE92ED22EC32EB42EA52E862F972F2A
:10087000AF2DBE2DBC01CD010D2D1C2D2B2D3A2DE4
:10088000A90198010E94000B882324F4DD2DCC2DB2
:10089000FB2CEA2C8D2F9C2FAF2DBE2DBC01CD0142
:1008A000DF91CF911F910F91FF90EF90DF90CF904C
:1008B000BF90AF9008952F923F924F925F926F92A8
:1008C0007F928F929F92AF92BF92CF92DF92EF92E0
:1008D000FF920F931F93CF93DF93CDB7DEB72A9785
:1008E0000FB6F894DEBF0FBECDBF82959295907F74
:1008F0009827807F98270F2EFAEE4F2EF0E05F2E7C
:10090000F02D480E591E3324222480E88987EFEB0E
:10091000EA87BB24AA246894A6F80F2EFCE19F2E38
:10092000F02D0F2EF6EC8F2EF02D66247724F20199
:10093000C190D190E190F1902F018B2D9A2DA92D8E
:10094000B82DBC01CD01A70196010E942404B62E4A
:10095000A72E982E892EC701B6010B2D1A2D292DF1
:10096000382DA90198010E94B109882359F4B301D7
:10097000882777FD8095982F0E94500A362E272EC3
:1009800089879A870894611C711CF4E06F167104C2
:1009900071F68B2D9A2DA92DB82D89839A83AB835F
:1009A000BC83832D922DA985BA858D839E83AF83C9
:1009B000B8872B2D3A814B815C81632D7E818F819D
:1009C00098852A960FB6F894DEBF0FBECDBFDF9193
:1009D000CF911F910F91FF90EF90DF90CF90BF903C
:1009E000AF909F908F907F906F905F904F903F90CF
:1009F0002F9008950F931F93CF93DF9382E50E946A
:100A00003109082F10E08FEC97E00197F1F700C053
:100A100000008CE40E943109C82F8FEC97E0019709
:100A2000F1F700C0000086E40E94310990E0D0E0B8
:100A3000C135D1059CF0863591053CF00135110595
:100A400004F501351105CCF51FC001351105FCF485
:100A500001351105FCF08FEF9FEF2AC08635910517
:100A60003CF001351105CCF401351105CCF028C05E
:100A700001351105C4F401351105C4F08FEF9FEF66
:100A800017C080E090E014C081E090E011C082E0E7
:100A900090E00EC083E090E00BC084E090E008C0DE
:100AA00085E090E005C086E090E002C087E090E03D
:100AB000DF91CF911F910F9108958FEF9FEFF8CFA6
:100AC0008FEF9FEFF5CF4F925F926F927F928F9251
:100AD0009F92AF92BF92CF92DF92EF92FF920F93CD
:100AE0001F93CF93DF93CDB7DEB764970FB6F8941B
:100AF000DEBF0FBECDBF8C01CB015A014901F80109
:100B0000EE0FFF1FEE0FFF1FE40FF51FEE0FFF1F8D
:100B1000EE0FFF1FE651FF4FC080D180E280F380CF
:100B2000C0927801D0927901E0927A01F0927B0133
:100B30000E945B0429873A874B875C876D877E8795
:100B40008F87988BFE013196DE01199688E00D9013
:100B500001928150E1F749805A806B807C804092FD
:100B60007001509271016092720170927301C7011D
:100B7000B60126E636E646E65FE30E94040B698B83
:100B80007A8B8B8B9C8BB401882777FD8095982F6F
:100B90000E94500A6B017C01C301B20120E030E0E9
:100BA00040E05FE30E94040B9B01AC01C701B6016A
:100BB0000E944D092DEC3CEC4CEC5DE30E94040BD3
:100BC0009B01AC0169897A898B899C890E944D09B6
:100BD000262F372F462F572F682F792F40937401D8
:100BE000509375016093760170937701000F111F88
:100BF000000F111F0A0D1B1DF801EE0FFF1FEE0F56
:100C0000FF1FE651FF4F582F492F822F932FA52FFB
:100C1000B42F80839183A283B38364960FB6F89434
:100C2000DEBF0FBECDBFDF91CF911F910F91FF901F
:100C3000EF90DF90CF90BF90AF909F908F907F907C
:100C40006F905F904F9008953F924F925F926F9296
:100C50007F928F929F92AF92BF92CF92DF92EF924C
:100C6000FF920F931F93CF93DF93CDB7DEB76097BB
:100C70000FB6F894DEBF0FBECDBF8091E400909117
:100C8000E500181619060CF0C2C0882499246624C1
:100C90007724689463F80F2EF0E64F2EF0E05F2E75
:100CA000F02D3324689433F80E94820386E40E9476
:100CB000310990E085319105BCF70E946D03809168
:100CC0006E0190916F010196B3010E94670B9093A2
:100CD0006D0180936C010E94FC032091E000309133
:100CE000E1004091E2005091E3000E94B109181622
:100CF0005CF00E94E30B64E070E00E94670B90934D
:100D00006B0180936A0123C080916E0190916F0105
:100D10000E945B0429873A874B875C876D877E87B3
:100D20008F87988BFE013196DE011996832D0D90E9
:100D300001928150E1F76D817E818F8198850E94BB
:100D40001D0ADC01CB0190936B0180936A01E09056
:100D50006E01F0906F01C0906A01D0906B01C701E5
:100D6000880F991F880F991F8C0D9D1D880F991F43
:100D7000880F991F840D951DDC016D917D918D91DA
:100D80009C9160937C0170937D0180937E01909390
:100D90007F01A0906C01B0906D010E941D0A8B0133
:100DA0009C01C701B501A60198010E9463058091CD
:100DB0006C0190916D0190936F0180936E01609131
:100DC000E0007091E1008091E2009091E3000E94C8
:100DD0001704DC01CB018093E0009093E100A09325
:100DE000E200B093E3008FEF90E7A2E081509040E3
:100DF000A040E1F700C000000894811C911C809184
:100E0000E4009091E500881699060CF44DCF6096A9
:100E10000FB6F894DEBF0FBECDBFDF91CF911F910B
:100E20000F91FF90EF90DF90CF90BF90AF909F9089
:100E30008F907F906F905F904F903F9008952F928A
:100E40003F925F926F927F928F929F92AF92BF92EA
:100E5000CF92DF92EF92FF920F931F93CF93DF9386
:100E6000CDB7DEB760970FB6F894DEBF0FBECDBF2B
:100E700065E87BEE81EF9FE30E94A6088091E40085
:100E80009091E500181619060CF4D3C0E2C00E9438
:100E900082030E940C0986359105CCF70E946D03F0
:100EA0000E94FA0490936F0180936E010E94FC03EC
:100EB0002091E0003091E1004091E2005091E30088
:100EC0000E94B109181654F00E94E30BB1010E9470
:100ED000670B90936B0180936A0123C080916E0130
:100EE00090916F010E945B0429873A874B875C874A
:100EF0006D877E878F87988BFE013196DE0119966C
:100F0000852D0D9001928150E1F76D817E818F8159
:100F100098850E941D0ADC01CB0190936B018093A0
:100F20006A0180916A0190916B0181309105C9F04D
:100F3000823091051CF4009741F01DC0823091056C
:100F400099F083309105B9F412C00E9482038FE7B3
:100F500098E3A1E081509040A040E1F700C000007C
:100F60000AC00E94B40307C00E94D80304C00E94B4
:100F7000D8030E94D8030E946D030E94FA046C01FA
:100F800090936D0180936C01E0906E01F0906F0181
:100F9000A0906A01B0906B01C701880F991F880F5C
:100FA000991F8A0D9B1D880F991F880F991F860D09
:100FB000971DDC016D917D918D919C9160937C01D9
:100FC00070937D0180937E0190937F010E941D0AA2
:100FD0008B019C01C701B601A50198010E94630520
:100FE0006091E0007091E1008091E2009091E30057
:100FF0000E941704DC01CB018093E0009093E10094
:10100000A093E200B093E3008FEF94E3ACE0815053
:101010009040A040E1F700C000000894811C911CA2
:101020008091E4009091E500881699060CF431CF88
:1010300010C0882499240F2EF0E66F2EF0E07F2E4A
:10104000F02D5524689453F822243324689422F810
:1010500020CF60960FB6F894DEBF0FBECDBFDF91F4
:10106000CF911F910F91FF90EF90DF90CF90BF90A5
:10107000AF909F908F907F906F905F903F902F9058
:101080000895CF93DF93CDB7DEB760970FB6F8948E
:10109000DEBF0FBECDBF18E002C00E9482030E94D7
:1010A0000C0986359105CCF70E946D030E94FA0465
:1010B0000E945B0429873A874B875C876D877E8710
:1010C0008F87988BDE011196FE013996812F019052
:1010D0000D928150E1F76D817E818F8198850E940C
:1010E0001D0ADC01CB0190936B0180936A01813072
:1010F000910519F40E94B403D2CF8230910519F4FE
:101100000E94D803CCCF8330910529F40E94D803E4
:101110000E94D803C4CF0E946D038FEF9DE3A9E422
:1011200081509040A040E1F700C00000B8CF83B7E5
:10113000806483BF80E58CBF83B7816083BF83B742
:10114000846083BF89B7826089BF08951FBC1EBCBD
:101150008D9A2FB522602FBD2EB528602EBD2EB5DD
:1011600020612EBD20E030E04AE754E40E94040BE9
:101170000E94220ADC01CB019BBD8ABD8FE19EE467
:1011800097BD86BD8EB58E7F8EBD8EB582608EBDBD
:101190008EB58B7F8EBD8FB58F7B8FBD8FB58068F1
:1011A0008FBD8FEF95EAAEE081509040A040E1F70F
:1011B00000C000000895CF93C82F82E490E063E060
:1011C00070E041E050E00E944D0083B7806483BF2F
:1011D00083B7886083BF3C2F20E0C90164E670E0DC
:1011E0000E94670B6CBF83B7816083BF83B7826047
:1011F00083BF83B78F7E83BF83B7806283BFCF9166
:10120000089581E663E041E00E944D0084E466E0D9
:1012100040E00E944D00089581E663E041E00E94B5
:10122000DE0025E82A95F1F7000081E663E040E062
:101230000E94DE00869BFECF869B0AC080E090E085
:1012400022E02A95F1F700C001968699F9CF02C0F5
:1012500080E090E069E070E00E94670B862F972F96
:101260000895863439F465E87BEE81EF9FE30E94B0
:10127000A6080FC0823539F463E373E383E79FE385
:101280000E94A60806C06DEC7CEC8CE290E40E9403
:10129000A6080E940C0908955058BB27AA270ED013
:1012A00075C166D130F06BD120F031F49F3F11F45D
:1012B0001EF45BC10EF4E095E7FB51C1E92F77D135
:1012C00080F3BA17620773078407950718F071F463
:1012D0009EF58FC10EF4E0950B2EBA2FA02D0B01B9
:1012E000B90190010C01CA01A0011124FF27591B6B
:1012F00099F0593F50F4503E68F11A16F040A22F71
:10130000232F342F4427585FF3CF469537952795E1
:10131000A795F0405395C9F77EF41F16BA0B620BE0
:10132000730B840BBAF09150A1F0FF0FBB1F661F27
:10133000771F881FC2F70EC0BA0F621F731F841F6A
:1013400048F4879577956795B795F7959E3F08F090
:10135000B3CF9395880F08F09927EE0F979587954F
:101360000895D9D008F481E008950CD00FC107D1B9
:1013700040F0FED030F021F45F3F19F0F0C0511181
:1013800039C1F3C014D198F39923C9F35523B1F3AC
:10139000951B550BBB27AA2762177307840738F0E4
:1013A0009F5F5F4F220F331F441FAA1FA9F333D043
:1013B0000E2E3AF0E0E830D091505040E695001CF7
:1013C000CAF729D0FE2F27D0660F771F881FBB1FB3
:1013D000261737074807AB07B0E809F0BB0B802D8D
:1013E000BF01FF2793585F4F2AF09E3F510568F0D9
:1013F000B6C000C15F3FECF3983EDCF3869577956D
:101400006795B795F7959F5FC9F7880F911D9695DA
:10141000879597F90895E1E0660F771F881FBB1F36
:10142000621773078407BA0720F0621B730B840BE3
:10143000BA0BEE1F88F7E095089504D06894B111B7
:10144000D9C00895BCD088F09F5790F0B92F992744
:10145000B751A0F0D1F0660F771F881F991F1AF0BF
:10146000BA95C9F712C0B13081F0C3D0B1E0089588
:10147000C0C0672F782F8827B85F39F0B93FCCF309
:10148000869577956795B395D9F73EF490958095B5
:10149000709561957F4F8F4F9F4F0895E89409C0D5
:1014A00097FB3EF490958095709561957F4F8F4F97
:1014B0009F4F9923A9F0F92F96E9BB279395F695AD
:1014C000879577956795B795F111F8CFFAF4BB0F2B
:1014D00011F460FF1BC06F5F7F4F8F4F9F4F16C08F
:1014E000882311F096E911C0772321F09EE8872F19
:1014F000762F05C0662371F096E8862F70E060E0D5
:101500002AF09A95660F771F881FDAF7880F96954D
:10151000879597F90895990F0008550FAA0BE0E8F1
:10152000FEEF16161706E807F907C0F012161306A5
:10153000E407F50798F0621B730B840B950B39F4E5
:101540000A2661F0232B242B252B21F408950A264B
:1015500009F4A140A6958FEF811D811D089597F98B
:101560009F6780E870E060E008959FEF80EC089549
:1015700000240A9416161706180609060895002472
:101580000A9412161306140605060895092E0394EC
:10159000000C11F4882352F0BB0F40F4BF2B11F460
:1015A00060FF04C06F5F7F4F8F4F9F4F089557FDBF
:1015B0009058440F551F59F05F3F71F04795880FC1
:1015C00097FB991F61F09F3F79F087950895121658
:1015D00013061406551FF2CF4695F1DF08C0161604
:1015E00017061806991FF1CF8695710561050894B5
:1015F0000895E894BB2766277727CB0197F90895CC
:101600008ADF08F48FEF08950BD0C0CFB1DF28F048
:10161000B6DF18F0952309F0A2CFA7CF1124EACFA7
:10162000C6DFA0F3959FD1F3950F50E0551F629F41
:10163000F001729FBB27F00DB11D639FAA27F00D2B
:10164000B11DAA1F649F6627B00DA11D661F829F52
:101650002227B00DA11D621F739FB00DA11D621F37
:10166000839FA00D611D221F749F3327A00D611D54
:10167000231F849F600D211D822F762F6A2F112436
:101680009F5750408AF0E1F088234AF0EE0FFF1F89
:10169000BB1F661F771F881F91505040A9F79E3FC0
:1016A000510570F05CCFA6CF5F3FECF3983EDCF3C2
:1016B000869577956795B795F795E7959F5FC1F7FD
:1016C000FE2B880F911D9695879597F9089597FBA6
:1016D000092E07260AD077FD04D00CD006D00020B2
:1016E0001AF4709561957F4F0895F6F7909581955E
:1016F0009F4F0895AA1BBB1B51E107C0AA1FBB1F28
:10170000A617B70710F0A61BB70B881F991F5A958D
:10171000A9F780959095BC01CD0108958F929F9275
:10172000AF92BF92CF92DF92EF92FF92CF93DF936F
:10173000EC0188819981AA81BB810097A105B1053F
:1017400021F484E299EDABE5B7E0BC01CD012DE1D8
:1017500033EF41E050E00E94120C49015A0127EAA0
:1017600031E440E050E00E94F30B6B017C01C501C5
:10177000B4012CEE34EF4FEF5FEF0E94F30BDC016E
:10178000CB01C80ED91EEA1EFB1EF7FE08C08FEF64
:101790009FEFAFEFBFE7C80ED91EEA1EFB1EC8823F
:1017A000D982EA82FB82C6019F77DF91CF91FF90B9
:1017B000EF90DF90CF90BF90AF909F908F90089563
:1017C0000E948E0B089586EE90E00E948E0B089585
:1017D000A0E0B0E08093E6009093E700A093E800DB
:1017E000B093E9000895629FD001739FF001829F3A
:1017F000E00DF11D649FE00DF11D929FF00D839FA0
:10180000F00D749FF00D659FF00D9927729FB00D3C
:10181000E11DF91F639FB00DE11DF91FBD01CF014F
:101820001124089597FB092E05260ED057FD04D0EC
:1018300014D00AD0001C38F450954095309521956D
:101840003F4F4F4F5F4F0895F6F7909580957095F5
:1018500061957F4F8F4F9F4F0895A1E21A2EAA1BCB
:10186000BB1BFD010DC0AA1FBB1FEE1FFF1FA21750
:10187000B307E407F50720F0A21BB30BE40BF50B4D
:10188000661F771F881F991F1A9469F760957095D6
:10189000809590959B01AC01BD01CF010895F8940E
:0218A000FFCF78
:1018A200000020410000004000000040000020C174
:1018B200000000C000002041000020C1000020C143
:1018C200000020C10000204100002041000000C0B3
:1018D200000020C100002041000020C1000000C023
:1018E20000000040000020C100002041000020C193
:1018F20000002041000020C1000020C1000000C003
:10190200000020C1000020C100002041000000C0F2
:10191200000020C1000020C1000020C100002041C1
:0A1922000000803FC8000100000033
:00000001FF
